{
  "contractName": "Loyalty",
  "abi": [
    {
      "constant": true,
      "inputs": [],
      "name": "totalSupply",
      "outputs": [
        {
          "name": "",
          "type": "uint256"
        }
      ],
      "payable": false,
      "stateMutability": "view",
      "type": "function"
    },
    {
      "constant": true,
      "inputs": [
        {
          "name": "_addr",
          "type": "address"
        }
      ],
      "name": "balanceOf",
      "outputs": [
        {
          "name": "",
          "type": "uint256"
        }
      ],
      "payable": false,
      "stateMutability": "view",
      "type": "function"
    },
    {
      "constant": false,
      "inputs": [
        {
          "name": "_retailerAddress",
          "type": "address"
        },
        {
          "name": "_numToken",
          "type": "uint256"
        }
      ],
      "name": "redeemToken",
      "outputs": [
        {
          "name": "",
          "type": "bool"
        }
      ],
      "payable": false,
      "stateMutability": "nonpayable",
      "type": "function"
    },
    {
      "constant": false,
      "inputs": [
        {
          "name": "_retailerAddress",
          "type": "address"
        }
      ],
      "name": "addRetailer",
      "outputs": [
        {
          "name": "",
          "type": "bool"
        }
      ],
      "payable": false,
      "stateMutability": "nonpayable",
      "type": "function"
    },
    {
      "constant": false,
      "inputs": [
        {
          "name": "_retailerAddress",
          "type": "address"
        },
        {
          "name": "_numToken",
          "type": "uint256"
        }
      ],
      "name": "supplyToken",
      "outputs": [
        {
          "name": "",
          "type": "bool"
        }
      ],
      "payable": false,
      "stateMutability": "nonpayable",
      "type": "function"
    },
    {
      "constant": true,
      "inputs": [
        {
          "name": "_addr",
          "type": "address"
        }
      ],
      "name": "isAllowedRetailer",
      "outputs": [
        {
          "name": "",
          "type": "bool"
        }
      ],
      "payable": false,
      "stateMutability": "view",
      "type": "function"
    },
    {
      "constant": false,
      "inputs": [
        {
          "name": "_addr",
          "type": "address"
        },
        {
          "name": "_numToken",
          "type": "uint256"
        }
      ],
      "name": "rewardToken",
      "outputs": [
        {
          "name": "",
          "type": "bool"
        }
      ],
      "payable": false,
      "stateMutability": "nonpayable",
      "type": "function"
    },
    {
      "inputs": [],
      "payable": false,
      "stateMutability": "nonpayable",
      "type": "constructor"
    },
    {
      "anonymous": false,
      "inputs": [
        {
          "indexed": true,
          "name": "_from",
          "type": "address"
        },
        {
          "indexed": true,
          "name": "_to",
          "type": "address"
        },
        {
          "indexed": false,
          "name": "_amount",
          "type": "uint256"
        }
      ],
      "name": "Transfer",
      "type": "event"
    }
  ],
  "bytecode": "0x6060604052620f4240600155341561001657600080fd5b33600260006101000a81548173ffffffffffffffffffffffffffffffffffffffff021916908373ffffffffffffffffffffffffffffffffffffffff160217905550610ad3806100666000396000f300606060405260043610610083576000357c0100000000000000000000000000000000000000000000000000000000900463ffffffff16806318160ddd1461008857806370a08231146100b1578063830cbbbd146100fe5780638ec4f505146101585780639d781ea0146101a9578063d20d06e314610203578063fb41138c14610254575b600080fd5b341561009357600080fd5b61009b6102ae565b6040518082815260200191505060405180910390f35b34156100bc57600080fd5b6100e8600480803573ffffffffffffffffffffffffffffffffffffffff169060200190919050506102b4565b6040518082815260200191505060405180910390f35b341561010957600080fd5b61013e600480803573ffffffffffffffffffffffffffffffffffffffff169060200190919080359060200190919050506102fd565b604051808215151515815260200191505060405180910390f35b341561016357600080fd5b61018f600480803573ffffffffffffffffffffffffffffffffffffffff169060200190919050506104db565b604051808215151515815260200191505060405180910390f35b34156101b457600080fd5b6101e9600480803573ffffffffffffffffffffffffffffffffffffffff169060200190919080359060200190919050506106d5565b604051808215151515815260200191505060405180910390f35b341561020e57600080fd5b61023a600480803573ffffffffffffffffffffffffffffffffffffffff16906020019091905050610841565b604051808215151515815260200191505060405180910390f35b341561025f57600080fd5b610294600480803573ffffffffffffffffffffffffffffffffffffffff16906020019091908035906020019091905050610897565b604051808215151515815260200191505060405180910390f35b60005481565b6000600360008373ffffffffffffffffffffffffffffffffffffffff1673ffffffffffffffffffffffffffffffffffffffff168152602001908152602001600020549050919050565b600080836001600460008373ffffffffffffffffffffffffffffffffffffffff1673ffffffffffffffffffffffffffffffffffffffff16815260200190815260200160002060006101000a81548160ff0219169083151502179055151561036357600080fd5b33915083600360008473ffffffffffffffffffffffffffffffffffffffff1673ffffffffffffffffffffffffffffffffffffffff1681526020019081526020016000205410156103b657600092506104d3565b6103ff600360008473ffffffffffffffffffffffffffffffffffffffff1673ffffffffffffffffffffffffffffffffffffffff1681526020019081526020016000205485610a70565b600360008473ffffffffffffffffffffffffffffffffffffffff1673ffffffffffffffffffffffffffffffffffffffff1681526020019081526020016000208190555061048b600360008773ffffffffffffffffffffffffffffffffffffffff1673ffffffffffffffffffffffffffffffffffffffff1681526020019081526020016000205485610a89565b600360008773ffffffffffffffffffffffffffffffffffffffff1673ffffffffffffffffffffffffffffffffffffffff16815260200190815260200160002081905550600192505b505092915050565b600033600260009054906101000a900473ffffffffffffffffffffffffffffffffffffffff1673ffffffffffffffffffffffffffffffffffffffff168173ffffffffffffffffffffffffffffffffffffffff1614151561053a57600080fd5b600073ffffffffffffffffffffffffffffffffffffffff168373ffffffffffffffffffffffffffffffffffffffff1614806105c25750600260009054906101000a900473ffffffffffffffffffffffffffffffffffffffff1673ffffffffffffffffffffffffffffffffffffffff168373ffffffffffffffffffffffffffffffffffffffff16145b156105d057600091506106cf565b6001600460008573ffffffffffffffffffffffffffffffffffffffff1673ffffffffffffffffffffffffffffffffffffffff16815260200190815260200160002060006101000a81548160ff021916908315150217905550610673600360008573ffffffffffffffffffffffffffffffffffffffff1673ffffffffffffffffffffffffffffffffffffffff16815260200190815260200160002054600154610a89565b600360008573ffffffffffffffffffffffffffffffffffffffff1673ffffffffffffffffffffffffffffffffffffffff168152602001908152602001600020819055506106c4600054600154610a89565b600081905550600191505b50919050565b600033600260009054906101000a900473ffffffffffffffffffffffffffffffffffffffff1673ffffffffffffffffffffffffffffffffffffffff168173ffffffffffffffffffffffffffffffffffffffff1614151561073457600080fd5b836001600460008373ffffffffffffffffffffffffffffffffffffffff1673ffffffffffffffffffffffffffffffffffffffff16815260200190815260200160002060006101000a81548160ff0219169083151502179055151561079757600080fd5b6107e0600360008773ffffffffffffffffffffffffffffffffffffffff1673ffffffffffffffffffffffffffffffffffffffff1681526020019081526020016000205485610a89565b600360008773ffffffffffffffffffffffffffffffffffffffff1673ffffffffffffffffffffffffffffffffffffffff1681526020019081526020016000208190555061082f60005485610a89565b60008190555060019250505092915050565b6000600460008373ffffffffffffffffffffffffffffffffffffffff1673ffffffffffffffffffffffffffffffffffffffff16815260200190815260200160002060009054906101000a900460ff169050919050565b6000336001600460008373ffffffffffffffffffffffffffffffffffffffff1673ffffffffffffffffffffffffffffffffffffffff16815260200190815260200160002060006101000a81548160ff021916908315150217905515156108fc57600080fd5b82600360003373ffffffffffffffffffffffffffffffffffffffff1673ffffffffffffffffffffffffffffffffffffffff16815260200190815260200160002054101561094c5760009150610a69565b610995600360003373ffffffffffffffffffffffffffffffffffffffff1673ffffffffffffffffffffffffffffffffffffffff1681526020019081526020016000205484610a70565b600360003373ffffffffffffffffffffffffffffffffffffffff1673ffffffffffffffffffffffffffffffffffffffff16815260200190815260200160002081905550610a21600360008673ffffffffffffffffffffffffffffffffffffffff1673ffffffffffffffffffffffffffffffffffffffff1681526020019081526020016000205484610a89565b600360008673ffffffffffffffffffffffffffffffffffffffff1673ffffffffffffffffffffffffffffffffffffffff16815260200190815260200160002081905550600191505b5092915050565b6000818310151515610a7e57fe5b818303905092915050565b6000808284019050838110151515610a9d57fe5b80915050929150505600a165627a7a7230582095846ed777048e7d18bb185b785fd77c5b9a43c634d4c608de56dd81c835dcad0029",
  "source": "pragma solidity ^0.4.17;\n\ncontract Loyalty {\n\n    uint256 public totalSupply;\n    uint256 initialToken = 1000000;\n    address owner;\n    mapping (address => uint256) balances;\n    mapping (address => bool) retailers;\n\n    struct Retailer {\n        address retailerAddress;\n    }\n\n    function Loyalty() public {\n        // xac dinh owner\n        owner = msg.sender;\n    }\n    event Transfer(address indexed _from, address indexed _to, uint256 _amount);\n\n    // check owner permission\n    modifier onlyOwner(address _addr) {\n        require(_addr == owner);\n        _;\n    }\n\n    // check owner permission\n    modifier onlyRetailer(address _addr) {\n        require(retailers[_addr] = true);\n        _;\n    }\n\n    function addRetailer(address _retailerAddress) onlyOwner(msg.sender) public returns (bool) {\n        //_retailerAddress ko hop le hoac _retailerAddress trung voi owner address\n        if (_retailerAddress == address(0) || _retailerAddress == owner) {\n            return false;\n        }\n        // add retailer to white list\n        retailers[_retailerAddress] = true;\n        // issue token to retailer for them to give back to user\n        balances[_retailerAddress] = safeAdd(balances[_retailerAddress], initialToken);\n        totalSupply = safeAdd(totalSupply, initialToken); initialToken;\n        \n        return true;\n    }\n\n    function rewardToken(address _addr, uint256 _numToken) onlyRetailer(msg.sender) public returns (bool) {\n        // check tai khoan gui co trong danh sach allowed chua\n        // check balance cua tai khoan gui\n        if (balances[msg.sender] < _numToken) {\n            return false;\n        }\n        // tru token trong tai khoan retailer\n        balances[msg.sender] = safeSub(balances[msg.sender], _numToken);\n        // cong token cho user\n        balances[_addr] = safeAdd(balances[_addr], _numToken);\n        // luu thong tin mua hang - user address (optional)\n        \n        return true;\n    }\n    \n    /**\n    * Supply them token cho retailer de dam bao retailer ko bi run out of token\n     */\n    function supplyToken(address _retailerAddress, uint256 _numToken) onlyOwner(msg.sender) onlyRetailer(_retailerAddress) public returns (bool) {\n        // cong token cho _retailerAddress\n        balances[_retailerAddress] = safeAdd(balances[_retailerAddress], _numToken);\n        // tang totalSupply\n        totalSupply = safeAdd(totalSupply, _numToken);\n\n        return true;\n    }\n\n    //Redeem with token\n    function redeemToken(address _retailerAddress, uint256 _numToken) onlyRetailer(_retailerAddress) public returns(bool) {\n        address user = msg.sender;\n        if (balances[user] < _numToken) {\n            return false;\n        } \n\n        balances[user] = safeSub(balances[user], _numToken);\n        balances[_retailerAddress] = safeAdd(balances[_retailerAddress], _numToken);\n        // TODO: store info about this redeem \n\n        return true;\n    }\n\n    // Constant function that return token balance of an address\n    function balanceOf(address _addr) public constant returns (uint256) {\n        return balances[_addr];\n    }\n\n    function isAllowedRetailer(address _addr) public constant returns (bool) {\n        return retailers[_addr];\n    }\n\n    /**\n        @dev returns the sum of _x and _y, asserts if the calculation overflows\n\n        @param _x   value 1\n        @param _y   value 2\n\n        @return sum\n    */\n    function safeAdd(uint256 _x, uint256 _y) internal pure returns (uint256) {\n        uint256 z = _x + _y;\n        assert(z >= _x);\n        return z;\n    }\n\n    /**\n        @dev returns the difference of _x minus _y, asserts if the subtraction results in a negative number\n\n        @param _x   minuend\n        @param _y   subtrahend\n\n        @return difference\n    */\n    function safeSub(uint256 _x, uint256 _y) internal pure returns (uint256) {\n        assert(_x >= _y);\n        return _x - _y;\n    }\n}",
  "sourcePath": "/Users/Tatsuya/blockathon/exam/contracts/Loyalty.sol",
  "compiler": {
    "name": "solc",
    "version": "0.4.18+commit.9cf6e910.Emscripten.clang"
  },
  "schemaVersion": "1.0.1",
  "updatedAt": "2017-11-25T23:34:25.122Z"
}