{
  "contractName": "Loyalty",
  "abi": [
    {
      "constant": true,
      "inputs": [],
      "name": "totalSupply",
      "outputs": [
        {
          "name": "",
          "type": "uint256"
        }
      ],
      "payable": false,
      "stateMutability": "view",
      "type": "function"
    },
    {
      "constant": false,
      "inputs": [
        {
          "name": "_addr",
          "type": "address"
        },
        {
          "name": "_numToken",
          "type": "uint8"
        }
      ],
      "name": "rewardToken",
      "outputs": [],
      "payable": true,
      "stateMutability": "payable",
      "type": "function"
    },
    {
      "constant": true,
      "inputs": [
        {
          "name": "_addr",
          "type": "address"
        }
      ],
      "name": "balanceOf",
      "outputs": [
        {
          "name": "",
          "type": "uint256"
        }
      ],
      "payable": false,
      "stateMutability": "view",
      "type": "function"
    },
    {
      "constant": false,
      "inputs": [
        {
          "name": "_retailerAddress",
          "type": "address"
        }
      ],
      "name": "addRetailer",
      "outputs": [],
      "payable": false,
      "stateMutability": "nonpayable",
      "type": "function"
    },
    {
      "constant": true,
      "inputs": [
        {
          "name": "_addr",
          "type": "address"
        }
      ],
      "name": "isAllowedRetailer",
      "outputs": [
        {
          "name": "",
          "type": "bool"
        }
      ],
      "payable": false,
      "stateMutability": "view",
      "type": "function"
    },
    {
      "inputs": [],
      "payable": false,
      "stateMutability": "nonpayable",
      "type": "constructor"
    }
  ],
  "bytecode": "0x6060604052341561000f57600080fd5b33600160006101000a81548173ffffffffffffffffffffffffffffffffffffffff021916908373ffffffffffffffffffffffffffffffffffffffff16021790555061052e8061005f6000396000f30060606040526004361061006d576000357c0100000000000000000000000000000000000000000000000000000000900463ffffffff16806318160ddd14610072578063371331251461009b57806370a08231146100d55780638ec4f50514610122578063d20d06e31461015b575b600080fd5b341561007d57600080fd5b6100856101ac565b6040518082815260200191505060405180910390f35b6100d3600480803573ffffffffffffffffffffffffffffffffffffffff1690602001909190803560ff169060200190919050506101b2565b005b34156100e057600080fd5b61010c600480803573ffffffffffffffffffffffffffffffffffffffff1690602001909190505061030a565b6040518082815260200191505060405180910390f35b341561012d57600080fd5b610159600480803573ffffffffffffffffffffffffffffffffffffffff16906020019091905050610353565b005b341561016657600080fd5b610192600480803573ffffffffffffffffffffffffffffffffffffffff169060200190919050506104ac565b604051808215151515815260200191505060405180910390f35b60005481565b336001600360008373ffffffffffffffffffffffffffffffffffffffff1673ffffffffffffffffffffffffffffffffffffffff16815260200190815260200160002060006101000a81548160ff0219169083151502179055151561021557600080fd5b8160ff16600260003373ffffffffffffffffffffffffffffffffffffffff1673ffffffffffffffffffffffffffffffffffffffff16815260200190815260200160002054101561026457610305565b8160ff16600260003373ffffffffffffffffffffffffffffffffffffffff1673ffffffffffffffffffffffffffffffffffffffff168152602001908152602001600020600082825403925050819055508160ff16600260008573ffffffffffffffffffffffffffffffffffffffff1673ffffffffffffffffffffffffffffffffffffffff168152602001908152602001600020600082825401925050819055505b505050565b6000600260008373ffffffffffffffffffffffffffffffffffffffff1673ffffffffffffffffffffffffffffffffffffffff168152602001908152602001600020549050919050565b600033600160009054906101000a900473ffffffffffffffffffffffffffffffffffffffff1673ffffffffffffffffffffffffffffffffffffffff168173ffffffffffffffffffffffffffffffffffffffff161415156103b257600080fd5b600073ffffffffffffffffffffffffffffffffffffffff168373ffffffffffffffffffffffffffffffffffffffff1614156103ec576104a7565b6001600360008573ffffffffffffffffffffffffffffffffffffffff1673ffffffffffffffffffffffffffffffffffffffff16815260200190815260200160002060006101000a81548160ff021916908315150217905550620f4240915081600260008573ffffffffffffffffffffffffffffffffffffffff1673ffffffffffffffffffffffffffffffffffffffff168152602001908152602001600020600082825401925050819055508160008082825401925050819055505b505050565b6000600360008373ffffffffffffffffffffffffffffffffffffffff1673ffffffffffffffffffffffffffffffffffffffff16815260200190815260200160002060009054906101000a900460ff1690509190505600a165627a7a72305820ac0f710fa331fa6361f26e446fe83fe18e176dc72d81dc586c5bda413d57efce0029",
  "source": "pragma solidity ^0.4.17;\n\ncontract Loyalty {\n\n    uint256 public totalSupply;\n    address owner;\n    mapping (address => uint256) balances;\n    mapping (address => bool) retailers;\n\n    struct Retailer {\n        address retailerAddress;\n    }\n\n    function Loyalty() public {\n        // xac dinh owner\n        owner = msg.sender;\n    }\n\n    // check owner permission\n    modifier onlyOwner(address _addr) {\n        require(_addr == owner);\n        _;\n    }\n\n    // check owner permission\n    modifier onlyRetailer(address _addr) {\n        require(retailers[_addr] = true);\n        _;\n    }\n\n    function addRetailer(address _retailerAddress) onlyOwner(msg.sender) public {\n        //_retailerAddress ko hop le\n        if (_retailerAddress == address(0)) {\n            return;\n        }\n        // add retailer to white list\n        retailers[_retailerAddress] = true;\n        // issue token to retailer for them to give back to user\n        uint256 initialToken = 1000000;\n        balances[_retailerAddress] += initialToken;\n        totalSupply += initialToken;\n    }\n\n    function rewardToken(address _addr, uint8 _numToken) onlyRetailer(msg.sender) payable public {\n        // check tai khoan gui co trong danh sach allowed chua\n        // check balance cua tai khoan gui\n        if (balances[msg.sender] < _numToken) {\n            return;\n        }\n        // tru token trong tai khoan retailer\n        balances[msg.sender] -= _numToken;\n        // cong token cho user\n        balances[_addr] += _numToken;\n        // luu thong tin mua hang - user address\n        \n        // Emit event\n        // Transfer(0x0, msg.sender, amount);\n    }\n\n    // Constant function that return token balance of an address\n    function balanceOf(address _addr) public constant returns (uint256) {\n        return balances[_addr];\n    }\n\n    function isAllowedRetailer(address _addr) public constant returns (bool) {\n        return retailers[_addr];\n    }\n}",
  "sourcePath": "/Users/Tatsuya/blockathon/exam/contracts/Loyalty.sol",
  "compiler": {
    "name": "solc",
    "version": "0.4.18+commit.9cf6e910.Emscripten.clang"
  },
  "schemaVersion": "1.0.1",
  "updatedAt": "2017-11-25T00:01:48.689Z"
}