{
  "contractName": "Loyalty",
  "abi": [
    {
      "constant": true,
      "inputs": [],
      "name": "totalSupply",
      "outputs": [
        {
          "name": "",
          "type": "uint256"
        }
      ],
      "payable": false,
      "stateMutability": "view",
      "type": "function"
    },
    {
      "constant": true,
      "inputs": [
        {
          "name": "_addr",
          "type": "address"
        }
      ],
      "name": "balanceOf",
      "outputs": [
        {
          "name": "",
          "type": "uint256"
        }
      ],
      "payable": false,
      "stateMutability": "view",
      "type": "function"
    },
    {
      "constant": false,
      "inputs": [
        {
          "name": "_addr",
          "type": "address"
        },
        {
          "name": "_numToken",
          "type": "uint256"
        }
      ],
      "name": "redeemToken",
      "outputs": [
        {
          "name": "",
          "type": "bool"
        }
      ],
      "payable": true,
      "stateMutability": "payable",
      "type": "function"
    },
    {
      "constant": false,
      "inputs": [
        {
          "name": "_retailerAddress",
          "type": "address"
        }
      ],
      "name": "addRetailer",
      "outputs": [
        {
          "name": "",
          "type": "bool"
        }
      ],
      "payable": false,
      "stateMutability": "nonpayable",
      "type": "function"
    },
    {
      "constant": true,
      "inputs": [
        {
          "name": "_addr",
          "type": "address"
        },
        {
          "name": "_numToken",
          "type": "uint256"
        }
      ],
      "name": "isAllowedRetailer",
      "outputs": [
        {
          "name": "",
          "type": "bool"
        }
      ],
      "payable": false,
      "stateMutability": "view",
      "type": "function"
    },
    {
      "inputs": [
        {
          "name": "_addr",
          "type": "address"
        },
        {
          "name": "_numToken",
          "type": "uint256"
        }
      ],
      "payable": false,
      "stateMutability": "nonpayable",
      "type": "function",
      "constant": false,
      "name": "rewardToken",
      "outputs": [
        {
          "name": "",
          "type": "bool"
        }
      ]
    },
    {
      "anonymous": false,
      "inputs": [
        {
          "indexed": true,
          "name": "_from",
          "type": "address"
        },
        {
          "indexed": true,
          "name": "_to",
          "type": "address"
        },
        {
          "indexed": false,
          "name": "_amount",
          "type": "uint256"
        }
      ],
      "name": "Transfer",
      "type": "constructor",
      "payable": false,
      "stateMutability": "nonpayable"
    },
    {
      "anonymous": false,
      "inputs": [
        {
          "indexed": true,
          "name": "_from",
          "type": "address"
        },
        {
          "indexed": true,
          "name": "_to",
          "type": "address"
        },
        {
          "indexed": false,
          "name": "_amount",
          "type": "uint256"
        }
      ],
      "name": "Transfer",
      "type": "event"
    }
  ],
  "bytecode": "0x6060604052620f4240600155341561001657600080fd5b33600260006101000a81548173ffffffffffffffffffffffffffffffffffffffff021916908373ffffffffffffffffffffffffffffffffffffffff16021790555061098a806100666000396000f300606060405260043610610078576000357c0100000000000000000000000000000000000000000000000000000000900463ffffffff16806318160ddd1461007d57806370a08231146100a6578063830cbbbd146100f35780638ec4f50514610142578063d20d06e314610193578063fb41138c146101e4575b600080fd5b341561008857600080fd5b61009061023e565b6040518082815260200191505060405180910390f35b34156100b157600080fd5b6100dd600480803573ffffffffffffffffffffffffffffffffffffffff16906020019091905050610244565b6040518082815260200191505060405180910390f35b610128600480803573ffffffffffffffffffffffffffffffffffffffff1690602001909190803590602001909190505061028d565b604051808215151515815260200191505060405180910390f35b341561014d57600080fd5b610179600480803573ffffffffffffffffffffffffffffffffffffffff16906020019091905050610506565b604051808215151515815260200191505060405180910390f35b341561019e57600080fd5b6101ca600480803573ffffffffffffffffffffffffffffffffffffffff169060200190919050506106a8565b604051808215151515815260200191505060405180910390f35b34156101ef57600080fd5b610224600480803573ffffffffffffffffffffffffffffffffffffffff169060200190919080359060200190919050506106fe565b604051808215151515815260200191505060405180910390f35b60005481565b6000600360008373ffffffffffffffffffffffffffffffffffffffff1673ffffffffffffffffffffffffffffffffffffffff168152602001908152602001600020549050919050565b6000336001600460008373ffffffffffffffffffffffffffffffffffffffff1673ffffffffffffffffffffffffffffffffffffffff16815260200190815260200160002060006101000a81548160ff021916908315150217905515156102f257600080fd5b82600360008673ffffffffffffffffffffffffffffffffffffffff1673ffffffffffffffffffffffffffffffffffffffff16815260200190815260200160002054101561034257600091506104ff565b82600360003373ffffffffffffffffffffffffffffffffffffffff1673ffffffffffffffffffffffffffffffffffffffff1681526020019081526020016000206000828254019250508190555082600360008673ffffffffffffffffffffffffffffffffffffffff1673ffffffffffffffffffffffffffffffffffffffff168152602001908152602001600020600082825403925050819055508373ffffffffffffffffffffffffffffffffffffffff1660007fddf252ad1be2c89b69c2b068fc378daa952ba7f163c4a11628f55a4df523b3ef600360008873ffffffffffffffffffffffffffffffffffffffff1673ffffffffffffffffffffffffffffffffffffffff168152602001908152602001600020546040518082815260200191505060405180910390a33373ffffffffffffffffffffffffffffffffffffffff1660007fddf252ad1be2c89b69c2b068fc378daa952ba7f163c4a11628f55a4df523b3ef600360003373ffffffffffffffffffffffffffffffffffffffff1673ffffffffffffffffffffffffffffffffffffffff168152602001908152602001600020546040518082815260200191505060405180910390a3600191505b5092915050565b600033600260009054906101000a900473ffffffffffffffffffffffffffffffffffffffff1673ffffffffffffffffffffffffffffffffffffffff168173ffffffffffffffffffffffffffffffffffffffff1614151561056557600080fd5b600073ffffffffffffffffffffffffffffffffffffffff168373ffffffffffffffffffffffffffffffffffffffff1614156105a357600091506106a2565b6001600460008573ffffffffffffffffffffffffffffffffffffffff1673ffffffffffffffffffffffffffffffffffffffff16815260200190815260200160002060006101000a81548160ff021916908315150217905550610646600360008573ffffffffffffffffffffffffffffffffffffffff1673ffffffffffffffffffffffffffffffffffffffff16815260200190815260200160002054600154610927565b600360008573ffffffffffffffffffffffffffffffffffffffff1673ffffffffffffffffffffffffffffffffffffffff16815260200190815260200160002081905550610697600054600154610927565b600081905550600191505b50919050565b6000600460008373ffffffffffffffffffffffffffffffffffffffff1673ffffffffffffffffffffffffffffffffffffffff16815260200190815260200160002060009054906101000a900460ff169050919050565b6000336001600460008373ffffffffffffffffffffffffffffffffffffffff1673ffffffffffffffffffffffffffffffffffffffff16815260200190815260200160002060006101000a81548160ff0219169083151502179055151561076357600080fd5b82600360003373ffffffffffffffffffffffffffffffffffffffff1673ffffffffffffffffffffffffffffffffffffffff1681526020019081526020016000205410156107b35760009150610920565b6107fc600360003373ffffffffffffffffffffffffffffffffffffffff1673ffffffffffffffffffffffffffffffffffffffff1681526020019081526020016000205484610945565b600360003373ffffffffffffffffffffffffffffffffffffffff1673ffffffffffffffffffffffffffffffffffffffff16815260200190815260200160002081905550610888600360008673ffffffffffffffffffffffffffffffffffffffff1673ffffffffffffffffffffffffffffffffffffffff1681526020019081526020016000205484610927565b600360008673ffffffffffffffffffffffffffffffffffffffff1673ffffffffffffffffffffffffffffffffffffffff168152602001908152602001600020819055503373ffffffffffffffffffffffffffffffffffffffff1660007fddf252ad1be2c89b69c2b068fc378daa952ba7f163c4a11628f55a4df523b3ef856040518082815260200191505060405180910390a3600191505b5092915050565b600080828401905083811015151561093b57fe5b8091505092915050565b600081831015151561095357fe5b8183039050929150505600a165627a7a72305820e21a99f0ca938c3b8b424883e523fd82c389a4ee402ee7d72500f55127ecbd0f0029",
  "source": "pragma solidity ^0.4.17;\n\ncontract Loyalty {\n\n    uint256 public totalSupply;\n    uint256 initialToken = 1000000;\n    address owner;\n    mapping (address => uint256) balances;\n    mapping (address => bool) retailers;\n\n    struct Retailer {\n        address retailerAddress;\n    }\n\n    function Loyalty() public {\n        // xac dinh owner\n        owner = msg.sender;\n    }\n    event Transfer(address indexed _from, address indexed _to, uint256 _amount);\n\n    // check owner permission\n    modifier onlyOwner(address _addr) {\n        require(_addr == owner);\n        _;\n    }\n\n    // check owner permission\n    modifier onlyRetailer(address _addr) {\n        require(retailers[_addr] = true);\n        _;\n    }\n\n    function addRetailer(address _retailerAddress) onlyOwner(msg.sender) public returns (bool) {\n        //_retailerAddress ko hop le\n        if (_retailerAddress == address(0)) {\n            return false;\n        }\n        // add retailer to white list\n        retailers[_retailerAddress] = true;\n        // issue token to retailer for them to give back to user\n        balances[_retailerAddress] = safeAdd(balances[_retailerAddress], initialToken);\n        totalSupply = safeAdd(totalSupply, initialToken); initialToken;\n        \n        return true;\n    }\n\n    function rewardToken(address _addr, uint256 _numToken) onlyRetailer(msg.sender) public returns (bool) {\n        // check tai khoan gui co trong danh sach allowed chua\n        // check balance cua tai khoan gui\n        if (balances[msg.sender] < _numToken) {\n            return false;\n        }\n        // tru token trong tai khoan retailer\n        balances[msg.sender] = safeSub(balances[msg.sender], _numToken);\n        // cong token cho user\n        balances[_addr] = safeAdd(balances[_addr], _numToken);\n        // luu thong tin mua hang - user address (optional)\n        \n        // Emit event\n        Transfer(0x0, msg.sender, _numToken);\n\n        return true;\n    }\n\n    //Redeem token\n    function redeemToken(address _addr, uint256 _numToken) onlyRetailer(msg.sender) payable public returns(bool) {\n        if (balances[_addr] < _numToken) {\n            return false;\n        } \n\n        balances[msg.sender] += _numToken;\n        balances[_addr] -= _numToken;\n\n        Transfer(0x0, _addr, balances[_addr]);\n        Transfer(0x0, msg.sender, balances[msg.sender]);\n\n        return true;\n    }\n\n    // Constant function that return token balance of an address\n    function balanceOf(address _addr) public constant returns (uint256) {\n        return balances[_addr];\n    }\n\n    function isAllowedRetailer(address _addr) public constant returns (bool) {\n        return retailers[_addr];\n    }\n\n    /**\n        @dev returns the sum of _x and _y, asserts if the calculation overflows\n\n        @param _x   value 1\n        @param _y   value 2\n\n        @return sum\n    */\n    function safeAdd(uint256 _x, uint256 _y) internal pure returns (uint256) {\n        uint256 z = _x + _y;\n        assert(z >= _x);\n        return z;\n    }\n\n    /**\n        @dev returns the difference of _x minus _y, asserts if the subtraction results in a negative number\n\n        @param _x   minuend\n        @param _y   subtrahend\n\n        @return difference\n    */\n    function safeSub(uint256 _x, uint256 _y) internal pure returns (uint256) {\n        assert(_x >= _y);\n        return _x - _y;\n    }\n}",
  "sourcePath": "/Users/khoatran/Documents/source/blockathon2017/contracts/Loyalty.sol",
  "compiler": {
    "name": "solc",
    "version": "0.4.18+commit.9cf6e910.Emscripten.clang"
  },
  "schemaVersion": "1.0.1",
  "updatedAt": "2017-11-25T04:02:34.775Z"
}