{
  "contractName": "Loyalty",
  "abi": [
    {
      "constant": true,
      "inputs": [],
      "name": "totalSupply",
      "outputs": [
        {
          "name": "",
          "type": "uint256"
        }
      ],
      "payable": false,
      "stateMutability": "view",
      "type": "function"
    },
    {
      "constant": true,
      "inputs": [
        {
          "name": "_addr",
          "type": "address"
        }
      ],
      "name": "balanceOf",
      "outputs": [
        {
          "name": "",
          "type": "uint256"
        }
      ],
      "payable": false,
      "stateMutability": "view",
      "type": "function"
    },
    {
      "constant": false,
      "inputs": [
        {
          "name": "_retailerAddress",
          "type": "address"
        }
      ],
      "name": "addRetailer",
      "outputs": [],
      "payable": false,
      "stateMutability": "nonpayable",
      "type": "function"
    },
    {
      "inputs": [],
      "payable": false,
      "stateMutability": "nonpayable",
      "type": "constructor"
    }
  ],
  "bytecode": "0x6060604052341561000f57600080fd5b33600160006101000a81548173ffffffffffffffffffffffffffffffffffffffff021916908373ffffffffffffffffffffffffffffffffffffffff1602179055506102df8061005f6000396000f300606060405260043610610057576000357c0100000000000000000000000000000000000000000000000000000000900463ffffffff16806318160ddd1461005c57806370a08231146100855780638ec4f505146100d2575b600080fd5b341561006757600080fd5b61006f61010b565b6040518082815260200191505060405180910390f35b341561009057600080fd5b6100bc600480803573ffffffffffffffffffffffffffffffffffffffff16906020019091905050610111565b6040518082815260200191505060405180910390f35b34156100dd57600080fd5b610109600480803573ffffffffffffffffffffffffffffffffffffffff1690602001909190505061015a565b005b60005481565b6000600260008373ffffffffffffffffffffffffffffffffffffffff1673ffffffffffffffffffffffffffffffffffffffff168152602001908152602001600020549050919050565b600033600160009054906101000a900473ffffffffffffffffffffffffffffffffffffffff1673ffffffffffffffffffffffffffffffffffffffff168173ffffffffffffffffffffffffffffffffffffffff161415156101b957600080fd5b600073ffffffffffffffffffffffffffffffffffffffff168373ffffffffffffffffffffffffffffffffffffffff1614156101f3576102ae565b6001600360008573ffffffffffffffffffffffffffffffffffffffff1673ffffffffffffffffffffffffffffffffffffffff16815260200190815260200160002060006101000a81548160ff021916908315150217905550620f4240915081600260008573ffffffffffffffffffffffffffffffffffffffff1673ffffffffffffffffffffffffffffffffffffffff168152602001908152602001600020600082825401925050819055508160008082825401925050819055505b5050505600a165627a7a72305820effb14ff403439c5fd18bee217743ab8f4be7621ad6e3aa5f911e25469431cf90029",
  "source": "pragma solidity ^0.4.17;\n\ncontract Loyalty {\n\n    uint256 public totalSupply;\n    address owner;\n    mapping (address => uint256) balances;\n    mapping (address => bool) retailers;\n\n    struct Retailer {\n        address retailerAddress;\n    }\n\n    function Loyalty() public {\n        // xac dinh owner\n        owner = msg.sender;\n    }\n\n    // check owner permission\n    modifier onlyOwner(address _addr) {\n        require(_addr == owner);\n        _;\n    }\n\n    // check owner permission\n    modifier onlyRetailer(address _addr) {\n        require(_addr == owner);\n        _;\n    }\n\n    function addRetailer(address _retailerAddress) onlyOwner(msg.sender) public {\n        //_retailerAddress ko hop le\n        if (_retailerAddress == address(0)) {\n            return;\n        }\n        // add retailer to white list\n        retailers[_retailerAddress] = true;\n        // issue token to retailer for them to give back to user\n        uint256 initialToken = 1000000;\n        balances[_retailerAddress] += initialToken;\n        totalSupply += initialToken;\n    }\n\n    // function rewardToken(address _addr, uint8 _numToken) onlyRetailer(msg.sender) public \n    //     // check tai khoan gui co trong danh sach allowed chua\n    //     // check balance cua tai khoan gui\n    //     // tru token trong tai khoan retailer\n    //     // cong token cho user\n    //     balances[userAddress] += \n    //     // luu thong tin mua hang - user address\n\n    //     // Calculate amount of token\n    //     uint256 amount = msg.value * price / 1 ether;\n    //     if (amount > availableNumber) {\n    //         amount = availableNumber;\n    //     } \n\n    //     // Check amount > 0\n    //     require(amount > 0);\n\n    //     // Change token balance\n    //     balances[msg.sender] += amount;\n    //     availableNumber -= amount;\n\n    //     // Refund eth\n    //     uint cost = amount*1 ether/price;\n    //     msg.sender.transfer(msg.value - cost);\n\n    //     // Transfer eth to admin\n    //     admin.transfer(cost);\n\n    //     // Emit event\n    //     Transfer(0x0, msg.sender, amount);\n    // }\n\n    // Constant function that return token balance of an address\n    function balanceOf(address _addr) public constant returns (uint256) {\n        return balances[_addr];\n    }\n}",
  "sourcePath": "/Users/Tatsuya/blockathon/practice/contracts/Loyalty.sol",
  "compiler": {
    "name": "solc",
    "version": "0.4.18+commit.9cf6e910.Emscripten.clang"
  },
  "schemaVersion": "1.0.1",
  "updatedAt": "2017-11-24T18:33:07.061Z"
}