{
  "contractName": "Token",
  "abi": [
    {
      "constant": true,
      "inputs": [
        {
          "name": "",
          "type": "uint256"
        },
        {
          "name": "",
          "type": "address"
        }
      ],
      "name": "dividends",
      "outputs": [
        {
          "name": "amount",
          "type": "uint256"
        },
        {
          "name": "claimed",
          "type": "bool"
        }
      ],
      "payable": false,
      "stateMutability": "view",
      "type": "function"
    },
    {
      "constant": true,
      "inputs": [
        {
          "name": "_addr",
          "type": "address"
        },
        {
          "name": "_round",
          "type": "uint256"
        }
      ],
      "name": "dividendOf",
      "outputs": [
        {
          "name": "",
          "type": "uint256"
        }
      ],
      "payable": false,
      "stateMutability": "view",
      "type": "function"
    },
    {
      "constant": true,
      "inputs": [],
      "name": "totalSupply",
      "outputs": [
        {
          "name": "",
          "type": "uint256"
        }
      ],
      "payable": false,
      "stateMutability": "view",
      "type": "function"
    },
    {
      "constant": false,
      "inputs": [
        {
          "name": "_round",
          "type": "uint256"
        }
      ],
      "name": "claim",
      "outputs": [],
      "payable": false,
      "stateMutability": "nonpayable",
      "type": "function"
    },
    {
      "constant": false,
      "inputs": [
        {
          "name": "_round",
          "type": "uint256"
        },
        {
          "name": "_addrs",
          "type": "address[]"
        },
        {
          "name": "_amounts",
          "type": "uint256[]"
        }
      ],
      "name": "setDividend",
      "outputs": [],
      "payable": true,
      "stateMutability": "payable",
      "type": "function"
    },
    {
      "constant": true,
      "inputs": [
        {
          "name": "_addr",
          "type": "address"
        }
      ],
      "name": "balanceOf",
      "outputs": [
        {
          "name": "",
          "type": "uint256"
        }
      ],
      "payable": false,
      "stateMutability": "view",
      "type": "function"
    },
    {
      "constant": true,
      "inputs": [],
      "name": "availableNumber",
      "outputs": [
        {
          "name": "",
          "type": "uint256"
        }
      ],
      "payable": false,
      "stateMutability": "view",
      "type": "function"
    },
    {
      "constant": false,
      "inputs": [
        {
          "name": "_adminAddress",
          "type": "address"
        }
      ],
      "name": "changeAdmin",
      "outputs": [],
      "payable": false,
      "stateMutability": "nonpayable",
      "type": "function"
    },
    {
      "constant": true,
      "inputs": [],
      "name": "admin",
      "outputs": [
        {
          "name": "",
          "type": "address"
        }
      ],
      "payable": false,
      "stateMutability": "view",
      "type": "function"
    },
    {
      "inputs": [
        {
          "name": "_totalSupply",
          "type": "uint256"
        }
      ],
      "payable": false,
      "stateMutability": "nonpayable",
      "type": "constructor"
    },
    {
      "payable": true,
      "stateMutability": "payable",
      "type": "fallback"
    },
    {
      "anonymous": false,
      "inputs": [
        {
          "indexed": true,
          "name": "_from",
          "type": "address"
        },
        {
          "indexed": true,
          "name": "_to",
          "type": "address"
        },
        {
          "indexed": false,
          "name": "_amount",
          "type": "uint256"
        }
      ],
      "name": "Transfer",
      "type": "event"
    },
    {
      "anonymous": false,
      "inputs": [
        {
          "indexed": true,
          "name": "_round",
          "type": "uint256"
        },
        {
          "indexed": true,
          "name": "_to",
          "type": "address"
        },
        {
          "indexed": false,
          "name": "_amount",
          "type": "uint256"
        }
      ],
      "name": "SetDividend",
      "type": "event"
    },
    {
      "anonymous": false,
      "inputs": [
        {
          "indexed": true,
          "name": "_round",
          "type": "uint256"
        },
        {
          "indexed": true,
          "name": "_to",
          "type": "address"
        },
        {
          "indexed": false,
          "name": "_amount",
          "type": "uint256"
        }
      ],
      "name": "Claim",
      "type": "event"
    }
  ],
  "bytecode": "0x60606040526064600555341561001457600080fd5b604051602080610b6d83398101604052808051906020019091905050806000819055508060018190555033600460006101000a81548173ffffffffffffffffffffffffffffffffffffffff021916908373ffffffffffffffffffffffffffffffffffffffff16021790555050610ade8061008f6000396000f300606060405260043610610099576000357c0100000000000000000000000000000000000000000000000000000000900463ffffffff16806314fa197c146102445780631712d220146102a557806318160ddd146102fb578063379607f51461032457806339f0cfae1461034757806370a08231146103df57806381603f871461042c5780638f28397014610455578063f851a4401461048e575b600080670de0b6b3a764000060055434028115156100b357fe5b0491506001548211156100c65760015491505b6000821115156100d557600080fd5b81600260003373ffffffffffffffffffffffffffffffffffffffff1673ffffffffffffffffffffffffffffffffffffffff1681526020019081526020016000206000828254019250508190555081600160008282540392505081905550600554670de0b6b3a7640000830281151561014957fe5b0490503373ffffffffffffffffffffffffffffffffffffffff166108fc8234039081150290604051600060405180830381858888f19350505050151561018e57600080fd5b600660009054906101000a900473ffffffffffffffffffffffffffffffffffffffff1673ffffffffffffffffffffffffffffffffffffffff166108fc829081150290604051600060405180830381858888f1935050505015156101f057600080fd5b3373ffffffffffffffffffffffffffffffffffffffff1660007fddf252ad1be2c89b69c2b068fc378daa952ba7f163c4a11628f55a4df523b3ef846040518082815260200191505060405180910390a35050005b341561024f57600080fd5b610284600480803590602001909190803573ffffffffffffffffffffffffffffffffffffffff169060200190919050506104e3565b60405180838152602001821515151581526020019250505060405180910390f35b34156102b057600080fd5b6102e5600480803573ffffffffffffffffffffffffffffffffffffffff16906020019091908035906020019091905050610521565b6040518082815260200191505060405180910390f35b341561030657600080fd5b61030e61057f565b6040518082815260200191505060405180910390f35b341561032f57600080fd5b6103456004808035906020019091905050610585565b005b6103dd600480803590602001909190803590602001908201803590602001908080602002602001604051908101604052809392919081815260200183836020028082843782019150505050505091908035906020019082018035906020019080806020026020016040519081016040528093929190818152602001838360200280828437820191505050505050919050506107f3565b005b34156103ea57600080fd5b610416600480803573ffffffffffffffffffffffffffffffffffffffff1690602001909190505061099b565b6040518082815260200191505060405180910390f35b341561043757600080fd5b61043f6109e4565b6040518082815260200191505060405180910390f35b341561046057600080fd5b61048c600480803573ffffffffffffffffffffffffffffffffffffffff169060200190919050506109ea565b005b341561049957600080fd5b6104a1610a8c565b604051808273ffffffffffffffffffffffffffffffffffffffff1673ffffffffffffffffffffffffffffffffffffffff16815260200191505060405180910390f35b6003602052816000526040600020602052806000526040600020600091509150508060000154908060010160009054906101000a900460ff16905082565b60006003600083815260200190815260200160002060008473ffffffffffffffffffffffffffffffffffffffff1673ffffffffffffffffffffffffffffffffffffffff16815260200190815260200160002060000154905092915050565b60005481565b60006003600083815260200190815260200160002060003373ffffffffffffffffffffffffffffffffffffffff1673ffffffffffffffffffffffffffffffffffffffff16815260200190815260200160002060000154148061064457506003600082815260200190815260200160002060003373ffffffffffffffffffffffffffffffffffffffff1673ffffffffffffffffffffffffffffffffffffffff16815260200190815260200160002060010160009054906101000a900460ff165b1561064e576107f0565b60016003600083815260200190815260200160002060003373ffffffffffffffffffffffffffffffffffffffff1673ffffffffffffffffffffffffffffffffffffffff16815260200190815260200160002060010160006101000a81548160ff0219169083151502179055503373ffffffffffffffffffffffffffffffffffffffff166108fc6003600084815260200190815260200160002060003373ffffffffffffffffffffffffffffffffffffffff1673ffffffffffffffffffffffffffffffffffffffff168152602001908152602001600020600001549081150290604051600060405180830381858888f19350505050151561074d57600080fd5b3373ffffffffffffffffffffffffffffffffffffffff16817f3ed1528b0fdc7c5207c1bf935e34a667e13656b9ed165260c522be0bc544f3036003600085815260200190815260200160002060003373ffffffffffffffffffffffffffffffffffffffff1673ffffffffffffffffffffffffffffffffffffffff168152602001908152602001600020600001546040518082815260200191505060405180910390a35b50565b60008090505b825181101561099557818181518110151561081057fe5b90602001906020020151600360008681526020019081526020016000206000858481518110151561083d57fe5b9060200190602002015173ffffffffffffffffffffffffffffffffffffffff1673ffffffffffffffffffffffffffffffffffffffff16815260200190815260200160002060000181905550600060036000868152602001908152602001600020600085848151811015156108ad57fe5b9060200190602002015173ffffffffffffffffffffffffffffffffffffffff1673ffffffffffffffffffffffffffffffffffffffff16815260200190815260200160002060010160006101000a81548160ff021916908315150217905550828181518110151561091957fe5b9060200190602002015173ffffffffffffffffffffffffffffffffffffffff16847f4c787b9db7fa62bfa3617f7f821cb0ea5ef356672e041d018bf6c1e09a6234ee848481518110151561096957fe5b906020019060200201516040518082815260200191505060405180910390a380806001019150506107f9565b50505050565b6000600260008373ffffffffffffffffffffffffffffffffffffffff1673ffffffffffffffffffffffffffffffffffffffff168152602001908152602001600020549050919050565b60015481565b33600460009054906101000a900473ffffffffffffffffffffffffffffffffffffffff1673ffffffffffffffffffffffffffffffffffffffff168173ffffffffffffffffffffffffffffffffffffffff16141515610a4757600080fd5b81600660006101000a81548173ffffffffffffffffffffffffffffffffffffffff021916908373ffffffffffffffffffffffffffffffffffffffff1602179055505050565b600660009054906101000a900473ffffffffffffffffffffffffffffffffffffffff16815600a165627a7a7230582062be23a56bcf38f181931341404f07561032b66233fedfc0d8db82e1550fe8de0029",
  "source": "pragma solidity ^0.4.0;\n\ncontract Token {\n\n    uint256 public totalSupply;\n    uint256 public availableNumber;\n    mapping (address => uint256) balances;\n\n    // Struct to store dividend infor of token holder \n    // Dividend will be shared by round\n    struct Dividend {\n        uint amount;\n        bool claimed;\n    }\n    mapping(uint => mapping(address => Dividend)) public dividends;\n\n    address owner;\n    uint price = 100; // 1 ETH = 100 Token\n    address public admin;\n\n    event Transfer(address indexed _from, address indexed _to, uint256 _amount);\n    event SetDividend(uint256 indexed _round, address indexed _to, uint256 _amount);\n    event Claim(uint256 indexed _round, address indexed _to, uint256 _amount);\n\n    modifier onlyOwner(address _addr) {\n        require(_addr == owner);\n        _;\n    }\n\n    // Constructor\n    // This function will be called when deploying\n    function Token(uint256 _totalSupply) public {\n        totalSupply = _totalSupply;\n        availableNumber = _totalSupply;\n\n        // Set owner is the person who deploy this contract\n        owner = msg.sender;\n    }\n\n    // Fallback function\n    // This function will be called when some account send ether\n    // to this contract\n    function () payable public {\n        // Calculate amount of token\n        uint256 amount = msg.value * price / 1 ether;\n        if (amount > availableNumber) {\n            amount = availableNumber;\n        } \n\n        // Check amount > 0\n        require(amount > 0);\n\n        // Change token balance\n        balances[msg.sender] += amount;\n        availableNumber -= amount;\n\n        // Refund eth\n        uint cost = amount*1 ether/price;\n        msg.sender.transfer(msg.value - cost);\n\n        // Transfer eth to admin\n        admin.transfer(cost);\n\n        // Emit event\n        Transfer(0x0, msg.sender, amount);\n    }\n\n    function changeAdmin(address _adminAddress) onlyOwner(msg.sender) public {\n        admin = _adminAddress;\n    }\n\n    function setDividend(uint256 _round, address[] _addrs, uint256[] _amounts) payable public {\n        for (uint256 i = 0; i < _addrs.length; i++) {\n            dividends[_round][_addrs[i]].amount = _amounts[i];\n            dividends[_round][_addrs[i]].claimed = false;\n            SetDividend(_round, _addrs[i], _amounts[i]);\n        }\n    }\n\n    function claim(uint256 _round) public {\n        if (dividends[_round][msg.sender].amount == 0 || dividends[_round][msg.sender].claimed) {\n            return;\n        }\n        dividends[_round][msg.sender].claimed = true;\n        msg.sender.transfer(dividends[_round][msg.sender].amount);\n        Claim(_round, msg.sender, dividends[_round][msg.sender].amount);\n    }\n\n    // Constant function that return token balance of an address\n    function balanceOf(address _addr) public constant returns (uint256) {\n        return balances[_addr];\n    }\n\n    function dividendOf(address _addr, uint256 _round) public constant returns(uint256) {\n        return dividends[_round][_addr].amount;\n    }\n\n}",
  "sourcePath": "/Users/Tatsuya/blockathon/exam/contracts/ref/Token.sol",
  "compiler": {
    "name": "solc",
    "version": "0.4.18+commit.9cf6e910.Emscripten.clang"
  },
  "schemaVersion": "1.0.1",
  "updatedAt": "2017-11-25T00:39:52.437Z"
}